:020000040000FA
:1000000070060020C10000007D090000F10800001A
:10001000FFFFFFFFFFFFFFFFFFFFFFFFFFFFFFFFF0
:10002000FFFFFFFFFFFFFFFFFFFFFFFF8109000052
:10003000FFFFFFFFFFFFFFFF7F090000010100003E
:1000400003010000030100000301000003010000A0
:100050000301000003010000030100000301000090
:10006000BD040000FFFFFFFF0301000003010000CB
:10007000D10800000301000003010000FFFFFFFFA3
:10008000FFFFFFFF03010000030100000301000068
:10009000030100000301000003010000B50B000094
:1000A000710D0000030100000301000003010000C6
:1000B0000301000003010000030100000301000030
:1000C0001048804710488047104800471048016991
:1000D000002910D1416900290DD1816900290AD177
:1000E000C169002907D1BFF34F8F0A490A48C86088
:1000F000BFF34F8FFEE77047FEE7FEE7FEE7FEE740
:10010000FEE7FEE7CD000000D10900001D01000060
:100110000003084000ED00E00400FA0503488546AE
:1001200000F04AF9004800478110000070060020E6
:1001300030B50B46014600202022012409E00D467F
:10014000D5409D4205D31D469540491B2546954007
:1001500040191546521E002DF1DC30BDF8B50024C3
:100160002546002904DA0E46012400214042B1410F
:10017000002B04DA1E46002352420125B34100F051
:10018000A9F88C4617461E46AC4203D000254042D3
:100190008D41AC46002C02D0002657429E4161465C
:1001A0003A46334601B0F0BD024670B54A40D30F1F
:1001B000DB0740002DD04A002AD0010E140E0002A9
:1001C00012020919400A520A8418E50104465443F0
:1001D000000A120A2E045043A4194219200CC543E8
:1001E000AA18120C0125AD03521C521912047F39B2
:1001F000240400D0521C104301D44000491EC2B256
:100200000C06C0092018401C4008802A02D003E0D8
:10021000002070BD40084000002900DA002018438B
:1002200070BD70B502464A40D50F40004A00ED0748
:1002300040085208002814D0002A12D0C40DD30D53
:1002400041020120C0055202490A520AE41A091863
:1002500012187D34914201D3641C00E04900002C47
:1002600001DA002070BD0023914201D3891A0343B3
:10027000400849000028F7D100290AD0914202D154
:100280000121C90705E0914201D2012101E00121CC
:10029000C943E005C018401900F04CF870BD10B516
:1002A00000229623114600F04DF810BD4100400297
:1002B0000122400AD205090E80187F2901DA0020A8
:1002C0007047962903DC9622511AC8407047963928
:1002D00088407047F0B51FB40646002082B005463E
:1002E0004024019100901BE0019922460F463046C0
:1002F00000F084F8049A059B801A994110D31046A7
:100300001946224600F06AF8361A8F4101972246B4
:1003100001200021009F00F061F838184D41009045
:100320002046641E0028DFDC019B009829463246E7
:1003300007B0F0BD002904DA401C490001D1400893
:100340004000704770B40024050C05D1102400044F
:1003500002D1002921D01124050E01D10002083458
:10036000050F01D10001241D850F01D18000A41CBF
:10037000002801DB4000641C002908D020252E1B2A
:100380000D46F540A14000D0012129430843010654
:100390001B1B000ADB1D02D5002070BC7047DB056B
:1003A000181880180029F8DA401C4900F5D170BCF3
:1003B0004008400070470000064C0125064E05E04D
:1003C000E36807CC2B430C3C98471034B442F7D376
:1003D000FFF7A8FEC0100000E010000010B5202AB2
:1003E00004DB0146203A9140002010BD91402023BB
:1003F0009C1A0346E3401943904010BD10B5202AD3
:1004000004DB0846203AD040002110BD0B46D34003
:10041000D0402024A21A91400843194610BD8030D4
:10042000C160704780220029016801D0114300E0BB
:100430009143016070470000012210B512060020B0
:100440009112012300F02CF9174C204600F07DF8A2
:10045000062000F039F902220121002000F086F880
:1004600000221146204600F050F801231A460021D0
:10047000204600F058F81021204600F061F80021D5
:10048000204600F067F801220421204600F034F8ED
:1004900001212046FFF7C6FF044AA1151160012182
:1004A000204600F059F810BD0000014000E100E0D6
:1004B00080308068084000D00120704710B50B4C98
:1004C00004212046FFF7F4FF00280ED00421204627
:1004D000FFF7A5FF206B064A0105090D11800548AD
:1004E00001210170204600F037F810BD00000140E6
:1004F00010000020000000208030002A026801D097
:100500000A4300E08A4302607047930810B59B00DD
:10051000181843689207D20E1F249440A3439140B9
:100520000B43436010BD5B1E12021B04FF3A013AED
:1005300013430B430168802211400B430360704753
:100540000A06120F02674167704701684022114393
:1005500001607047016270470029416F02D001229B
:10056000114301E04908490041677047F0B59646DC
:100570000A461349C000461800230025FF20984072
:100580002C46104216D00020012199408C4611467D
:10059000C1406746394206D087000F21B9400D435C
:1005A0007146B9400C43401C0828F0D33068A8437A
:1005B000204330600833361D082BDEDDF0BD00001F
:1005C0002020024070B5184D0446686B4607760F30
:1005D00000F02EF815492060330000F027FD0814C4
:1005E00005070714140E1114606000E06160296AA9
:1005F0006068052909D3400908E00120C003F3E73A
:100600007D200002F0E70020EEE7C840A060A96A64
:100610004903490F072902D0C840E06070BD03219B
:10062000FFF786FDF9E700000080084000127A001D
:100630000C490868C869C20F4868400AC007C00F63
:100640000ED00948002A0BD18869C00D0007000FA1
:1006500000D110208969044A4902890F5043C840DB
:10066000704700000080084000127A001FB5410961
:100670000A4A89008A1800212E2800D10221C006CA
:10068000C00E1268032383401A40C24054186846C3
:10069000FFF798FF029804B0E04010BD3880084092
:1006A000F0B5084F7C6AFD6A3E6B84438D439643E8
:1006B000002B02D004430D4316437C62FD623E636F
:1006C000F0BD00000080084004498A6A07231B042B
:1006D0009A43000402438A62704700000080084089
:1006E00010B500F00FF90149487110BD4A0400200F
:1006F0008162704770B50520012100220004890342
:100700000123FFF7CDFF374C00220121204600F0E6
:100710006DF801221146204600F070F800220121F8
:10072000204600F073F800220821204600F05EF811
:1007300001220821204600F061F80022082120460D
:1007400000F064F800222021204600F04FF801223A
:100750002021204600F052F800222021204600F0FF
:1007600055F8214D661500223146284600F03EF826
:1007700001223146284600F041F800223146284641
:1007800000F044F804212046FFF7B2FF01220421C3
:10079000204600F02BF810212046FFF7A9FF012288
:1007A0001021204600F022F810212846FFF7A0FF74
:1007B00001221021284600F019F820212846FFF7D1
:1007C00097FF01222021284600F010F8A4152146A9
:1007D0002846FFF78DFF01222146284600F006F843
:1007E00070BD000000000B4000400B40002A026872
:1007F00001D00A4300E08A4302607047002A426841
:1008000001D00A4300E08A4342607047002A08D0C2
:10081000012A09D082688A438260C2688A43C26022
:10082000704782680A43F7E7C2680A43C260826879
:100830008A4382607047416270470000F0B500242F
:100840002546FF26013685B0284632460123294633
:10085000FFF726FF1A4800680A2100F0CFFB7D222F
:10086000D2000023FFF77AFC401E164F049000E0F0
:10087000641C611C0498FFF75BFCB842F8D8611C4B
:100880000498FFF755FC694608804C800D710E4CAA
:1008900002958E81204600F027F93146204600F06F
:1008A0000BF901223146204600F015F90121074AD3
:1008B000090311600121204600F003F905B0F0BDE5
:1008C0000C000020FFFF000000E0064000E100E017
:1008D00010B5FF210131044800F0EEF8034801682B
:1008E000491C016010BD000000E006400800002027
:1008F000FEE7000010B500F019F80149887110BD3D
:100900004A04002010B5074801790748012904D09E
:100910002021FFF790FF002010BD2021FFF7E8FE07
:10092000012010BD0200002000400B4010B5074818
:10093000FF21427901310648012A03D0FFF77BFFEE
:10094000002010BDFFF7D4FE012010BD02000020E2
:1009500000400B4010B50748C1780748012904D072
:100960001021FFF768FF002010BD1021FFF7C0FE27
:10097000012010BD0200002000400B40FEE7FEE712
:10098000FEE7000010B51B21014800F091FA10BDF0
:100990004A04002010B50A480088FFF780FC094986
:1009A000FFF73FFC0849FFF7FFFBFFF77FFC6421DF
:1009B0000C1A084600F056FB0448C47010BD000035
:1009C0001000002000F07F450000C8424A040020CB
:1009D000F0B534491020C86033490120086033481D
:1009E000016B40242143016331498A68272AFCD1E5
:1009F000416A032292029143416241680122D2027C
:100A0000114341608168C908C907FBD04168C90822
:100A1000C900C91C4160416B4907490F0329FAD13C
:100A2000244B1968C908C900491C196000250562D2
:100A300041685E15B143416001689F15394301600B
:100A400041681A151143416081688908C907FBD0C4
:100A5000016BA14301630168B943016003210906E9
:100A6000816141683143416081684908C907FBD011
:100A70001968C908C900891C196005624168C9085C
:100A8000C900491C4160416B4907490F0129FAD14E
:100A90001868102108431860186809020843186094
:100AA000F0BD00000081084000830840008008403D
:100AB00000A1064000020840C943C167BFF34F8F41
:100AC00070470029016902D00122114301E0490861
:100AD000490001617047002A426F01D00A4300E0DB
:100AE0008A4342677047000010B502460B88803287
:100AF00093604B885360036803242404A34303607A
:100B0000036801242406A343036003688C6823431D
:100B10000360044B984201D10B79D36089898167C6
:100B200010BD000000C002403EB50024FF25412159
:100B300022460135090201231046FFF7B1FD0622C6
:100B400004210020FFF712FD062208210020FFF7F4
:100B50000DFD4B20C001009068468580C480048153
:100B60004481AC056946204600F0DCF901221146BB
:100B7000204600F030FA01220021204600F02BFA36
:100B800020220121204600F01CFA202200212046CC
:100B900000F017FA0122691C204600F005FAA8218E
:100BA00061610349E011086000F08CF83EBD00006F
:100BB00000E100E0F8B50126B6073069C00519D597
:100BC0002A4CA08800281DD00025E71FF93F608827
:100BD000395C304600F0F3F9A078401CC0B2608068
:100BE000A088401E0004000CA08003D06D1C2D04C2
:100BF0002D0CECD030691E4D8006EC1DF934002818
:100C000012DB17E000220221304600F0CDF9F1E7B7
:100C1000304600F0D1F9218868542078401CC0B2D9
:100C20002080A088401CA0800221304600F070F98E
:100C30000028EDD13069400616D54021304600F03D
:100C400063F90BE0304600F0B7F92188685420784A
:100C5000401CC0B22080A088401CA08002213046E9
:100C600000F056F90028EDD1F8BD00003402002054
:100C70002C000020F0B5114A00209588002D1BD0D3
:100C80005388D61FF93EF15C3C2915D1112D13D3A1
:100C90000B4F1918CC17240E6418240A2402091BC0
:100CA00089193C180978401CE1711128F1DB6D1E8F
:100CB0005B1C9580D8B25080F0BD00002C01002054
:100CC0004A04002005490020488008808880FF31C0
:100CD0000931488008808880704700002C0100207E
:100CE0003EB5002421212246490201231046FFF788
:100CF000D7FC062210210020FFF738FC0622202115
:100D00000020FFF733FCE12040020090FF2001307B
:100D100069468880CC800C814C81134C204600F0C1
:100D200001F901221146204600F055F90122002167
:100D3000204600F050F920220121204600F041F920
:100D400020220021204600F03CF9FF21012202313F
:100D5000204600F029F9A82161610449A00108603A
:100D600000F098F83EBD00000000044000E100E003
:100D7000F8B52C4E3069C00519D52B4CA088002839
:100D80001DD00025E71FF93F6088395C304600F030
:100D900016F9A078401CC0B26080A088401E0004F4
:100DA000000CA08003D06D1C2D042D0CECD03069FC
:100DB0001E4D8006EC1DF934002812DB17E00022DE
:100DC0000221304600F0F0F8F1E7304600F0F4F888
:100DD000218868542078401CC0B22080A088401C24
:100DE000A0800221304600F093F80028EDD1306950
:100DF000400616D54021304600F086F80BE030461C
:100E000000F0DAF8218868542078401CC0B22080B5
:100E1000A088401CA0800221304600F079F800280C
:100E2000EDD1F8BD00000440440400203C02002045
:100E3000F0B5164B00209D88002D25D05A88DE1F66
:100E4000F93EB15CFF291FD1511CC9B2715CFE296A
:100E50001AD1062D18D30E4F1118CC17240E641872
:100E6000240A2402091B891909783954052803D159
:100E7000074C0121641E2170401C0628ECDBAD1FCD
:100E8000921D9D80D0B25880F0BD00003C03002030
:100E90000200002005490020488008808880FF313A
:100EA0000931488008808880704700003C0300209A
:100EB00070B5114A12E01488104D03782B55137841
:100EC0000F4C5B1CDBB2138001231B06236094884C
:100ED000641C94800A4C803C2360401C0B46491ED5
:100EE000C9B2002BE7D19088002804D0012202214A
:100EF000044800F059F870BD440400204403002069
:100F000080E100E00000044002690A40026170478D
:100F10008068012903D0000E0007000F7047000C05
:100F2000FAE7000070B504460D46C88889886268F3
:100F300008432989184B1A4011430843698908431B
:100F4000606001208007844206D11820FFF78EFBE5
:100F50002968FFF7EDF860621048844206D11A2034
:100F6000FFF784FB2968FFF7E3F860620C488442CE
:100F700006D11C20FFF77AFB2968FFF7D9F86062D9
:100F80000848844206D11E20FFF770FB2968FFF74E
:100F9000CFF8606270BD0000FCE0FFFF000004407D
:100FA0000010004000100440002AC26801D00A432B
:100FB00000E08A43C2607047006880B270470160F9
:100FC000704710B58368490030248C40A3438A40A1
:100FD0001343836010BD10238B404168002A01D069
:100FE000194300E0994341607047000010B5FFF7D6
:100FF000B1FC0149087110BD4A040020F8B5040C89
:101000008BB2264682B25E430D0C1046370C584315
:10101000360480190021794116466E43370C360498
:101020008019794126466E438919F8BD30B474465B
:10103000641E2578641CAB4200D21D46635D5B00D4
:10104000E31830BC184702E008C8121F08C1002A84
:10105000FAD170477047002001E001C1121F002A39
:10106000FBD170470022054B05E0002100BF491C61
:101070009942FBD3521C8242F7D3704710270000DD
:10108000FFF738FBFFF7D8F9FFF74EFDFFF728FE13
:10109000FFF7D4FB0948FF210170FE214170FFF7E3
:1010A00079FCFFF7A3FFFFF71BFBFFF723FCFFF71C
:1010B00069FCFFF7BDFEFFF7DDFDF0E74A04002005
:1010C000E0100000000000201000000046100000AA
:1010D000F010000010000020600600005610000014
:1010E000000000000000000000000000006CDC02B6
:04000005000000C136
:00000001FF
